{
  "contractName": "CallerContract",
  "abi": [
    {
      "anonymous": false,
      "inputs": [
        {
          "indexed": true,
          "internalType": "address",
          "name": "previousOwner",
          "type": "address"
        },
        {
          "indexed": true,
          "internalType": "address",
          "name": "newOwner",
          "type": "address"
        }
      ],
      "name": "OwnershipTransferred",
      "type": "event"
    },
    {
      "anonymous": false,
      "inputs": [
        {
          "indexed": false,
          "internalType": "uint256",
          "name": "ethPrice",
          "type": "uint256"
        },
        {
          "indexed": false,
          "internalType": "uint256",
          "name": "id",
          "type": "uint256"
        }
      ],
      "name": "PriceUpdatedEvent",
      "type": "event"
    },
    {
      "anonymous": false,
      "inputs": [
        {
          "indexed": false,
          "internalType": "uint256",
          "name": "id",
          "type": "uint256"
        }
      ],
      "name": "ReceivedNewRequestIdEvent",
      "type": "event"
    },
    {
      "anonymous": false,
      "inputs": [
        {
          "indexed": false,
          "internalType": "address",
          "name": "oracleAddress",
          "type": "address"
        }
      ],
      "name": "newOracleAddressEvent",
      "type": "event"
    },
    {
      "inputs": [],
      "name": "owner",
      "outputs": [
        {
          "internalType": "address",
          "name": "",
          "type": "address"
        }
      ],
      "stateMutability": "view",
      "type": "function"
    },
    {
      "inputs": [],
      "name": "renounceOwnership",
      "outputs": [],
      "stateMutability": "nonpayable",
      "type": "function"
    },
    {
      "inputs": [
        {
          "internalType": "address",
          "name": "newOwner",
          "type": "address"
        }
      ],
      "name": "transferOwnership",
      "outputs": [],
      "stateMutability": "nonpayable",
      "type": "function"
    },
    {
      "inputs": [
        {
          "internalType": "address",
          "name": "_oracleInstanceAddress",
          "type": "address"
        }
      ],
      "name": "setOracleInstanceAddress",
      "outputs": [],
      "stateMutability": "nonpayable",
      "type": "function"
    },
    {
      "inputs": [],
      "name": "updateEthPrice",
      "outputs": [],
      "stateMutability": "nonpayable",
      "type": "function"
    },
    {
      "inputs": [
        {
          "internalType": "uint256",
          "name": "_ethPrice",
          "type": "uint256"
        },
        {
          "internalType": "uint256",
          "name": "_id",
          "type": "uint256"
        }
      ],
      "name": "callback",
      "outputs": [],
      "stateMutability": "nonpayable",
      "type": "function"
    }
  ],
  "bytecode": "0x608060405234801561000f575f80fd5b5061002c61002161003160201b60201c565b61003860201b60201c565b6100f9565b5f33905090565b5f805f9054906101000a900473ffffffffffffffffffffffffffffffffffffffff169050815f806101000a81548173ffffffffffffffffffffffffffffffffffffffff021916908373ffffffffffffffffffffffffffffffffffffffff1602179055508173ffffffffffffffffffffffffffffffffffffffff168173ffffffffffffffffffffffffffffffffffffffff167f8be0079c531659141344cd1fd0a4f28419497f9722a3daafe3b4186f6b6457e060405160405180910390a35050565b610a3d806101065f395ff3fe608060405234801561000f575f80fd5b5060043610610060575f3560e01c806323c7e4a214610064578063715018a61461006e5780638da5cb5b14610078578063b5d73ba414610096578063e9e17a9e146100b2578063f2fde38b146100ce575b5f80fd5b61006c6100ea565b005b6100766101df565b005b6100806101f2565b60405161008d9190610674565b60405180910390f35b6100b060048036038101906100ab91906106c4565b610219565b005b6100cc60048036038101906100c7919061072c565b610369565b005b6100e860048036038101906100e3919061072c565b61046d565b005b5f60025f9054906101000a900473ffffffffffffffffffffffffffffffffffffffff1673ffffffffffffffffffffffffffffffffffffffff166330c0b9ec6040518163ffffffff1660e01b81526004016020604051808303815f875af1158015610156573d5f803e3d5ffd5b505050506040513d601f19601f8201168201806040525081019061017a919061076b565b9050600160045f8381526020019081526020015f205f6101000a81548160ff0219169083151502179055507f3ed150819af981e387450beb90ec379b8b322150dbb299d492b108c59a623e4b816040516101d491906107a5565b60405180910390a150565b6101e76104ef565b6101f05f61056d565b565b5f805f9054906101000a900473ffffffffffffffffffffffffffffffffffffffff16905090565b60035f9054906101000a900473ffffffffffffffffffffffffffffffffffffffff1673ffffffffffffffffffffffffffffffffffffffff163373ffffffffffffffffffffffffffffffffffffffff16146102a8576040517f08c379a000000000000000000000000000000000000000000000000000000000815260040161029f9061083e565b60405180910390fd5b60045f8281526020019081526020015f205f9054906101000a900460ff16610305576040517f08c379a00000000000000000000000000000000000000000000000000000000081526004016102fc906108cc565b60405180910390fd5b8160018190555060045f8281526020019081526020015f205f6101000a81549060ff02191690557f6b69e4f2aedf7e65a79ecaf16e8869b2b99c87e341f2c51286bfd4a7fc3b9969828260405161035d9291906108ea565b60405180910390a15050565b6103716104ef565b8060035f6101000a81548173ffffffffffffffffffffffffffffffffffffffff021916908373ffffffffffffffffffffffffffffffffffffffff16021790555060035f9054906101000a900473ffffffffffffffffffffffffffffffffffffffff1660025f6101000a81548173ffffffffffffffffffffffffffffffffffffffff021916908373ffffffffffffffffffffffffffffffffffffffff1602179055507f441e3b056b114797955165bd03bb8393fc1658a713f09225de4745a8d068bf7d60035f9054906101000a900473ffffffffffffffffffffffffffffffffffffffff166040516104629190610674565b60405180910390a150565b6104756104ef565b5f73ffffffffffffffffffffffffffffffffffffffff168173ffffffffffffffffffffffffffffffffffffffff16036104e3576040517f08c379a00000000000000000000000000000000000000000000000000000000081526004016104da90610981565b60405180910390fd5b6104ec8161056d565b50565b6104f761062e565b73ffffffffffffffffffffffffffffffffffffffff166105156101f2565b73ffffffffffffffffffffffffffffffffffffffff161461056b576040517f08c379a0000000000000000000000000000000000000000000000000000000008152600401610562906109e9565b60405180910390fd5b565b5f805f9054906101000a900473ffffffffffffffffffffffffffffffffffffffff169050815f806101000a81548173ffffffffffffffffffffffffffffffffffffffff021916908373ffffffffffffffffffffffffffffffffffffffff1602179055508173ffffffffffffffffffffffffffffffffffffffff168173ffffffffffffffffffffffffffffffffffffffff167f8be0079c531659141344cd1fd0a4f28419497f9722a3daafe3b4186f6b6457e060405160405180910390a35050565b5f33905090565b5f73ffffffffffffffffffffffffffffffffffffffff82169050919050565b5f61065e82610635565b9050919050565b61066e81610654565b82525050565b5f6020820190506106875f830184610665565b92915050565b5f80fd5b5f819050919050565b6106a381610691565b81146106ad575f80fd5b50565b5f813590506106be8161069a565b92915050565b5f80604083850312156106da576106d961068d565b5b5f6106e7858286016106b0565b92505060206106f8858286016106b0565b9150509250929050565b61070b81610654565b8114610715575f80fd5b50565b5f8135905061072681610702565b92915050565b5f602082840312156107415761074061068d565b5b5f61074e84828501610718565b91505092915050565b5f815190506107658161069a565b92915050565b5f602082840312156107805761077f61068d565b5b5f61078d84828501610757565b91505092915050565b61079f81610691565b82525050565b5f6020820190506107b85f830184610796565b92915050565b5f82825260208201905092915050565b7f596f7520617265206e6f7420617574686f72697a656420746f2063616c6c20745f8201527f6869732066756e6374696f6e2e00000000000000000000000000000000000000602082015250565b5f610828602d836107be565b9150610833826107ce565b604082019050919050565b5f6020820190508181035f8301526108558161081c565b9050919050565b7f546869732072657175657374206973206e6f7420696e206d792070656e64696e5f8201527f67206c6973742e00000000000000000000000000000000000000000000000000602082015250565b5f6108b66027836107be565b91506108c18261085c565b604082019050919050565b5f6020820190508181035f8301526108e3816108aa565b9050919050565b5f6040820190506108fd5f830185610796565b61090a6020830184610796565b9392505050565b7f4f776e61626c653a206e6577206f776e657220697320746865207a65726f20615f8201527f6464726573730000000000000000000000000000000000000000000000000000602082015250565b5f61096b6026836107be565b915061097682610911565b604082019050919050565b5f6020820190508181035f8301526109988161095f565b9050919050565b7f4f776e61626c653a2063616c6c6572206973206e6f7420746865206f776e65725f82015250565b5f6109d36020836107be565b91506109de8261099f565b602082019050919050565b5f6020820190508181035f830152610a00816109c7565b905091905056fea2646970667358221220cfd06eee56da1cc806d191176dd2f995f01feaa3fa70385526c8b1c136ae2b0464736f6c63430008150033",
  "immutableReferences": {},
  "source": "// SPDX-License-Identifier: MIT\r\npragma solidity 0.8.21;\r\n\r\nimport \"./EthPriceOracleInterface.sol\";\r\nimport \"@openzeppelin/contracts/access/Ownable.sol\";\r\n\r\n\r\n// This is my SmartContract it is used to call the oracle smart contract \r\ncontract CallerContract is Ownable {\r\n    \r\n    uint256 private ethPrice;\r\n\r\n    EthPriceOracleInterface private oracleInstance;\r\n\r\n    // For this contract to interact with oracle we need to provide the following info:\r\n    // 1. the address of the oracle\r\n    // 2. the signature of the function you want to call\r\n    address private oracleAddress; \r\n\r\n    // Due to the nature of asynchronous requests, there's no way of getLatestEthPrice returns this bit of information\r\n    // so what it returns is an id of the request. Then oracle goes ahead and fetches the ETH price from Binance API and executes a callback\r\n    // exposed by the caller conctract(this contract) and this callback function updates ETH price\r\n    mapping (uint256 => bool) myRequests;\r\n\r\n    event newOracleAddressEvent(address oracleAddress);\r\n    event ReceivedNewRequestIdEvent(uint256 id);\r\n    event PriceUpdatedEvent(uint256 ethPrice, uint256 id);\r\n\r\n    // We're providing a setter for the oracleInstance becuase if anything happens to the oracle \r\n    // we just set another address of the oracle instead of redeploying everything\r\n    function setOracleInstanceAddress(address _oracleInstanceAddress) public onlyOwner {\r\n        oracleAddress = _oracleInstanceAddress;\r\n        oracleInstance = EthPriceOracleInterface(oracleAddress);\r\n\r\n        // fire an event so that the front-end gets notified every time the oracle address is changed\r\n        emit newOracleAddressEvent(oracleAddress);\r\n    }\r\n\r\n\r\n    function updateEthPrice() public {\r\n       uint256 id = oracleInstance.getLatestEthPrice();\r\n       myRequests[id] = true;    \r\n       emit ReceivedNewRequestIdEvent(id);\r\n    }\r\n\r\n\r\n    // So, calling the Binance API is an asynchronous operation, the caller smart contract(this)\r\n    // must provide a callback function which the oracle should call once we fetch the ETH price\r\n    function callback(uint256 _ethPrice, uint256 _id) public onlyOracle {\r\n        require(myRequests[_id], \"This request is not in my pending list.\");\r\n        ethPrice = _ethPrice;\r\n        delete myRequests[_id];\r\n        emit PriceUpdatedEvent(_ethPrice, _id);\r\n    } \r\n\r\n\r\n    modifier onlyOracle() {\r\n        require(msg.sender == oracleAddress, \"You are not authorized to call this function.\");\r\n        _;\r\n    }\r\n}",
  "sourcePath": "C:\\Users\\daors\\Documents\\work\\projects\\Blockchain\\projects\\EthPriceOracle\\caller\\contracts\\CallerContract.sol",
  "compiler": {
    "name": "solc",
    "version": "0.8.21+commit.d9974bed.Emscripten.clang"
  },
  "schemaVersion": "3.4.16",
  "updatedAt": "2025-02-25T18:17:39.376Z",
  "devdoc": {
    "kind": "dev",
    "methods": {
      "owner()": {
        "details": "Returns the address of the current owner."
      },
      "renounceOwnership()": {
        "details": "Leaves the contract without owner. It will not be possible to call `onlyOwner` functions. Can only be called by the current owner. NOTE: Renouncing ownership will leave the contract without an owner, thereby disabling any functionality that is only available to the owner."
      },
      "transferOwnership(address)": {
        "details": "Transfers ownership of the contract to a new account (`newOwner`). Can only be called by the current owner."
      }
    },
    "version": 1
  },
  "userdoc": {
    "kind": "user",
    "methods": {},
    "version": 1
  }
}