{
  "contractName": "EthPriceOracle",
  "abi": [
    {
      "anonymous": false,
      "inputs": [
        {
          "indexed": false,
          "internalType": "address",
          "name": "calledAddress",
          "type": "address"
        },
        {
          "indexed": false,
          "internalType": "uint256",
          "name": "id",
          "type": "uint256"
        }
      ],
      "name": "GetLatestEthPriceEvent",
      "type": "event"
    },
    {
      "anonymous": false,
      "inputs": [
        {
          "indexed": true,
          "internalType": "address",
          "name": "previousOwner",
          "type": "address"
        },
        {
          "indexed": true,
          "internalType": "address",
          "name": "newOwner",
          "type": "address"
        }
      ],
      "name": "OwnershipTransferred",
      "type": "event"
    },
    {
      "anonymous": false,
      "inputs": [
        {
          "indexed": false,
          "internalType": "uint256",
          "name": "ethPrice",
          "type": "uint256"
        },
        {
          "indexed": false,
          "internalType": "address",
          "name": "callerAddress",
          "type": "address"
        }
      ],
      "name": "SetLatestEthPriceEvent",
      "type": "event"
    },
    {
      "inputs": [],
      "name": "owner",
      "outputs": [
        {
          "internalType": "address",
          "name": "",
          "type": "address"
        }
      ],
      "stateMutability": "view",
      "type": "function"
    },
    {
      "inputs": [],
      "name": "renounceOwnership",
      "outputs": [],
      "stateMutability": "nonpayable",
      "type": "function"
    },
    {
      "inputs": [
        {
          "internalType": "address",
          "name": "newOwner",
          "type": "address"
        }
      ],
      "name": "transferOwnership",
      "outputs": [],
      "stateMutability": "nonpayable",
      "type": "function"
    },
    {
      "inputs": [],
      "name": "getLatestEthPrice",
      "outputs": [
        {
          "internalType": "uint256",
          "name": "",
          "type": "uint256"
        }
      ],
      "stateMutability": "nonpayable",
      "type": "function"
    },
    {
      "inputs": [
        {
          "internalType": "uint256",
          "name": "_ethPrice",
          "type": "uint256"
        },
        {
          "internalType": "address",
          "name": "_callerAddress",
          "type": "address"
        },
        {
          "internalType": "uint256",
          "name": "_id",
          "type": "uint256"
        }
      ],
      "name": "setLatestEthPrice",
      "outputs": [],
      "stateMutability": "nonpayable",
      "type": "function"
    }
  ],
  "bytecode": "0x60806040525f6001556103e8600255348015610019575f80fd5b5061003661002b61003b60201b60201c565b61004260201b60201c565b610103565b5f33905090565b5f805f9054906101000a900473ffffffffffffffffffffffffffffffffffffffff169050815f806101000a81548173ffffffffffffffffffffffffffffffffffffffff021916908373ffffffffffffffffffffffffffffffffffffffff1602179055508173ffffffffffffffffffffffffffffffffffffffff168173ffffffffffffffffffffffffffffffffffffffff167f8be0079c531659141344cd1fd0a4f28419497f9722a3daafe3b4186f6b6457e060405160405180910390a35050565b6109d6806101105f395ff3fe608060405234801561000f575f80fd5b5060043610610055575f3560e01c806330c0b9ec14610059578063715018a6146100775780638da5cb5b14610081578063cf642f1f1461009f578063f2fde38b146100bb575b5f80fd5b6100616100d7565b60405161006e91906104e1565b60405180910390f35b61007f610197565b005b6100896101aa565b6040516100969190610539565b60405180910390f35b6100b960048036038101906100b491906105aa565b6101d1565b005b6100d560048036038101906100d091906105fa565b610301565b005b5f60015f8154809291906100ea90610652565b91905055505f600254423360015460405160200161010a939291906106fe565b604051602081830303815290604052805190602001205f1c61012c9190610767565b9050600160035f8381526020019081526020015f205f6101000a81548160ff0219169083151502179055507f3d50a0c24e97813f35595d2f1f37dbf421d5e97f37abd4e222853e9b9c82c8d53382604051610188929190610797565b60405180910390a18091505090565b61019f610383565b6101a85f610401565b565b5f805f9054906101000a900473ffffffffffffffffffffffffffffffffffffffff16905090565b6101d9610383565b60035f8281526020019081526020015f205f9054906101000a900460ff16610236576040517f08c379a000000000000000000000000000000000000000000000000000000000815260040161022d9061083e565b60405180910390fd5b60035f8281526020019081526020015f205f6101000a81549060ff02191690555f8290508073ffffffffffffffffffffffffffffffffffffffff1663b5d73ba485846040518363ffffffff1660e01b815260040161029592919061085c565b5f604051808303815f87803b1580156102ac575f80fd5b505af11580156102be573d5f803e3d5ffd5b505050507f91b860381268a473101de3379abbb70abf7ea6c9d1735cf58b9816479ff3b72784846040516102f3929190610883565b60405180910390a150505050565b610309610383565b5f73ffffffffffffffffffffffffffffffffffffffff168173ffffffffffffffffffffffffffffffffffffffff1603610377576040517f08c379a000000000000000000000000000000000000000000000000000000000815260040161036e9061091a565b60405180910390fd5b61038081610401565b50565b61038b6104c2565b73ffffffffffffffffffffffffffffffffffffffff166103a96101aa565b73ffffffffffffffffffffffffffffffffffffffff16146103ff576040517f08c379a00000000000000000000000000000000000000000000000000000000081526004016103f690610982565b60405180910390fd5b565b5f805f9054906101000a900473ffffffffffffffffffffffffffffffffffffffff169050815f806101000a81548173ffffffffffffffffffffffffffffffffffffffff021916908373ffffffffffffffffffffffffffffffffffffffff1602179055508173ffffffffffffffffffffffffffffffffffffffff168173ffffffffffffffffffffffffffffffffffffffff167f8be0079c531659141344cd1fd0a4f28419497f9722a3daafe3b4186f6b6457e060405160405180910390a35050565b5f33905090565b5f819050919050565b6104db816104c9565b82525050565b5f6020820190506104f45f8301846104d2565b92915050565b5f73ffffffffffffffffffffffffffffffffffffffff82169050919050565b5f610523826104fa565b9050919050565b61053381610519565b82525050565b5f60208201905061054c5f83018461052a565b92915050565b5f80fd5b61055f816104c9565b8114610569575f80fd5b50565b5f8135905061057a81610556565b92915050565b61058981610519565b8114610593575f80fd5b50565b5f813590506105a481610580565b92915050565b5f805f606084860312156105c1576105c0610552565b5b5f6105ce8682870161056c565b93505060206105df86828701610596565b92505060406105f08682870161056c565b9150509250925092565b5f6020828403121561060f5761060e610552565b5b5f61061c84828501610596565b91505092915050565b7f4e487b71000000000000000000000000000000000000000000000000000000005f52601160045260245ffd5b5f61065c826104c9565b91507fffffffffffffffffffffffffffffffffffffffffffffffffffffffffffffffff820361068e5761068d610625565b5b600182019050919050565b5f819050919050565b6106b36106ae826104c9565b610699565b82525050565b5f8160601b9050919050565b5f6106cf826106b9565b9050919050565b5f6106e0826106c5565b9050919050565b6106f86106f382610519565b6106d6565b82525050565b5f61070982866106a2565b60208201915061071982856106e7565b60148201915061072982846106a2565b602082019150819050949350505050565b7f4e487b71000000000000000000000000000000000000000000000000000000005f52601260045260245ffd5b5f610771826104c9565b915061077c836104c9565b92508261078c5761078b61073a565b5b828206905092915050565b5f6040820190506107aa5f83018561052a565b6107b760208301846104d2565b9392505050565b5f82825260208201905092915050565b7f546869732072657175657374206973206e6f7420696e206d792070656e64696e5f8201527f67206c6973742e00000000000000000000000000000000000000000000000000602082015250565b5f6108286027836107be565b9150610833826107ce565b604082019050919050565b5f6020820190508181035f8301526108558161081c565b9050919050565b5f60408201905061086f5f8301856104d2565b61087c60208301846104d2565b9392505050565b5f6040820190506108965f8301856104d2565b6108a3602083018461052a565b9392505050565b7f4f776e61626c653a206e6577206f776e657220697320746865207a65726f20615f8201527f6464726573730000000000000000000000000000000000000000000000000000602082015250565b5f6109046026836107be565b915061090f826108aa565b604082019050919050565b5f6020820190508181035f830152610931816108f8565b9050919050565b7f4f776e61626c653a2063616c6c6572206973206e6f7420746865206f776e65725f82015250565b5f61096c6020836107be565b915061097782610938565b602082019050919050565b5f6020820190508181035f83015261099981610960565b905091905056fea26469706673582212205a1957f3c85937904f9bc015b8551464e3095d898c1c83297a9df505d47c7c7f64736f6c63430008150033",
  "immutableReferences": {},
  "source": "// SPDX-License-Identifier: MIT\r\npragma solidity 0.8.21;\r\n\r\n/// Here we need to interact with our caller smart contract so that we can pass the ethPrice once computed and call callback function\r\nimport \"./CallerContractInterface.sol\";\r\nimport \"@openzeppelin/contracts/access/Ownable.sol\";\r\n\r\n\r\n/** The Oracle contract acts as a bridge, enabling the caller contracts to access ETH price feed. To achieve this\r\n *  it just implements two functions: getLatestEthPrice and setLatestEthPrice.\r\n */\r\ncontract EthPriceOracle is Ownable{\r\n\r\n    uint private randNonce = 0;\r\n    uint private modulus = 1000; // used in when generating random number for request id, and extracting last 3 digits\r\n\r\n    mapping(uint256 => bool) pendingRequests;\r\n\r\n    /// @param calledAddress the address of the smart contract that's calling this oracle\r\n    /// @param id the request id\r\n    event GetLatestEthPriceEvent(address calledAddress, uint id);\r\n\r\n    event SetLatestEthPriceEvent(uint256 ethPrice, address callerAddress);\r\n\r\n    /// To allow callers track their requests, getLatestEthPrice should first compute the request id, and for security reasons\r\n    // this number should be hard to guess\r\n    function getLatestEthPrice() public returns (uint256) {\r\n        randNonce++;\r\n        uint id = uint(keccak256(abi.encodePacked(block.timestamp, msg.sender, randNonce))) % modulus;\r\n        pendingRequests[id] = true;\r\n        emit GetLatestEthPriceEvent(msg.sender, id);\r\n        return id;\r\n    }\r\n\r\n    /// The JavaScript component of the oracle retrieves the ETH price from Binance public API and then calls the setLatestEthPrice \r\n    /// passing it the following arguments:\r\n    /// @param _ethPrice The ethPrice that we get from the Binance API\r\n    /// @param _callerAddress The address of the contract that initiated the request\r\n    /// @param _id The id of the request\r\n    function setLatestEthPrice(uint256 _ethPrice, address _callerAddress, uint256 _id) public onlyOwner {\r\n        require(pendingRequests[_id], \"This request is not in my pending list.\");\r\n        delete pendingRequests[_id];\r\n        CallerContractInterface callerContractInstance;\r\n        callerContractInstance = CallerContractInterface(_callerAddress);\r\n        callerContractInstance.callback(_ethPrice, _id);\r\n        emit SetLatestEthPriceEvent(_ethPrice, _callerAddress);\r\n    }\r\n}",
  "sourcePath": "C:\\Users\\daors\\Documents\\work\\projects\\Blockchain\\projects\\EthPriceOracle\\oracle\\contracts\\EthPriceOracle.sol",
  "compiler": {
    "name": "solc",
    "version": "0.8.21+commit.d9974bed.Emscripten.clang"
  },
  "schemaVersion": "3.4.16",
  "updatedAt": "2025-02-25T18:16:53.619Z",
  "devdoc": {
    "events": {
      "GetLatestEthPriceEvent(address,uint256)": {
        "params": {
          "calledAddress": "the address of the smart contract that's calling this oracle",
          "id": "the request id"
        }
      }
    },
    "kind": "dev",
    "methods": {
      "owner()": {
        "details": "Returns the address of the current owner."
      },
      "renounceOwnership()": {
        "details": "Leaves the contract without owner. It will not be possible to call `onlyOwner` functions. Can only be called by the current owner. NOTE: Renouncing ownership will leave the contract without an owner, thereby disabling any functionality that is only available to the owner."
      },
      "setLatestEthPrice(uint256,address,uint256)": {
        "params": {
          "_callerAddress": "The address of the contract that initiated the request",
          "_ethPrice": "The ethPrice that we get from the Binance API",
          "_id": "The id of the request"
        }
      },
      "transferOwnership(address)": {
        "details": "Transfers ownership of the contract to a new account (`newOwner`). Can only be called by the current owner."
      }
    },
    "version": 1
  },
  "userdoc": {
    "kind": "user",
    "methods": {
      "getLatestEthPrice()": {
        "notice": "To allow callers track their requests, getLatestEthPrice should first compute the request id, and for security reasons"
      },
      "setLatestEthPrice(uint256,address,uint256)": {
        "notice": "The JavaScript component of the oracle retrieves the ETH price from Binance public API and then calls the setLatestEthPrice  passing it the following arguments:"
      }
    },
    "notice": "The Oracle contract acts as a bridge, enabling the caller contracts to access ETH price feed. To achieve this  it just implements two functions: getLatestEthPrice and setLatestEthPrice.",
    "version": 1
  }
}